:020000040000FA
:100000000C9462000C948A000C948A000C948A0070
:100010000C948A000C948A000C948A000C948A0038
:100020000C948A000C948A000C948A000C948A0028
:100030000C948A000C948A000C948A000C948A0018
:100040000C9435070C948A000C9403070C94DD067D
:100050000C948A000C948A000C948A000C948A00F8
:100060000C947F070C948A000000000024002700F5
:100070002A0000000000250028002B0000000008D6
:10008000000201000003040700000000000000005F
:1000900000000000230026002900040404040404D6
:1000A0000404020202020202030303030303010227
:1000B00004081020408001020408102001020408F6
:1000C00010209E0811241FBECFEFD8E0DEBFCDBFA9
:1000D00023E0A2E7B1E001C01D92A130B207E1F731
:1000E00011E0A0E0B1E0EEE3FEE102C005900D9268
:1000F000A237B107D9F710E0C2E6D0E004C02197DB
:10010000FE010E94250DC136D107C9F70E940609DC
:100110000C941D0F0C940000CF92DF92EF92FF928F
:10012000CF93DF93B091F102A0E08111AB2F8091CA
:10013000F20290E0880F991FAC0140575F4FC090CA
:10014000F702D090F802E090F902F090FA0230E065
:1001500020E0FA01C591D491E881B90190E080E0F6
:10016000EB23EA130AC02F5F3F4F6C157D058E0508
:100170009F0578F36FEF7FEFCB01DF91CF91FF9079
:10018000EF90DF90CF900895FC01538D448D252F83
:1001900030E0842F90E0821B930B541710F0CF9621
:1001A000089501970895FC01918D828D981761F053
:1001B000A28DAE0FBF2FB11D5D968C91928D9F5F6A
:1001C0009F73928F90E008958FEF9FEF0895FC0149
:1001D000918D828D981731F0828DE80FF11D858DFC
:1001E00090E008958FEF9FEF0895FC01918D228D8F
:1001F000892F90E0805C9F4F821B91098F73992714
:100200000895FC01A48DA80FB92FB11DA35ABF4FAB
:100210002C91848D90E001968F739927848FA68905
:10022000B7892C93A089B1898C91837080648C9359
:10023000938D848D981306C00288F389E02D808108
:100240008F7D80830895EF92FF920F931F93CF933A
:10025000DF93EC0181E0888F9B8D8C8D98131AC001
:10026000E889F989808185FF15C09FB7F894EE89E8
:10027000FF896083E889F989808183708064808345
:100280009FBF81E090E0DF91CF911F910F91FF9090
:10029000EF900895F62E0B8D10E00F5F1F4F0F7338
:1002A0001127E02E8C8D8E110CC00FB607FCFACFF3
:1002B000E889F989808185FFF5CFCE010E9401018F
:1002C000F1CFEB8DEC0FFD2FF11DE35AFF4FF082C4
:1002D0009FB7F8940B8FEA89FB8980818062CFCF2A
:1002E000CF93DF93EC01888D8823B9F0AA89BB896D
:1002F000E889F9898C9185FD03C0808186FD0DC058
:100300000FB607FCF7CF8C9185FFF2CF808185FF78
:10031000EDCFCE010E940101E9CFDF91CF91089589
:1003200085E392E00E94F50021E0892B09F420E0AA
:10033000822F089580E090E0892B29F00E9490019F
:1003400081110C940000089508950895AF92BF9212
:10035000CF92DF92EF92FF920F931F93CF93DF9391
:100360006C017B018B01040F151FEB015E01AE18C0
:10037000BF08C017D10759F06991D601ED91FC91E2
:100380000190F081E02DC6010995892B79F7C5010F
:10039000DF91CF911F910F91FF90EF90DF90CF9061
:1003A000BF90AF900895FC014481558160817181B7
:1003B0008EED92E00C94A601833081F028F4813018
:1003C00099F08230A9F008958730A9F08830C9F0FB
:1003D0008430B1F4809180008F7D03C080918000D3
:1003E0008F7780938000089584B58F7784BD0895BA
:1003F00084B58F7DFBCF8091B0008F778093B00064
:1004000008958091B0008F7DF9CFCF93DF93282F8F
:1004100030E0F901E458FF4F8491F901E255FF4FB4
:10042000D491F901E656FF4FC491CC23A1F081117C
:100430000E94DC01EC2FF0E0EE0FFF1FE057FF4FB2
:10044000A591B491EC91ED2381E090E009F480E076
:10045000DF91CF91089580E090E0FACF1F93CF9382
:10046000DF93282F30E0F901E458FF4F8491F90120
:10047000E255FF4FD491F901E656FF4FC491CC23CA
:10048000A9F0162F81110E94DC01EC2FF0E0EE0F95
:10049000FF1FEE58FF4FA591B4918FB7F894EC91E0
:1004A000111108C0D095DE23DC938FBFDF91CF916F
:1004B0001F910895DE2BF8CFCF93DF9390E0FC01DE
:1004C000E255FF4F249186569F4FFC01849188236B
:1004D000C9F090E0880F991FFC01E859FF4FA591E2
:1004E000B491FC01EE58FF4FC591D49161110DC03C
:1004F0009FB7F8948C91209582238C938881282330
:1005000028839FBFDF91CF910895623051F49FB748
:10051000F8943C91822F809583238C93E8812E2B35
:10052000EFCF8FB7F894EC912E2B2C938FBFEACF9F
:100530003FB7F8948091250290912602A09127025E
:10054000B091280226B5A89B05C02F3F19F001964F
:10055000A11DB11D3FBFBA2FA92F982F8827BC011D
:10056000CD01620F711D811D911D42E0660F771F45
:10057000881F991F4A95D1F708958F929F92AF9245
:10058000BF92CF92DF92EF92FF924B015C010E94EB
:1005900098026B017C010E9498026C197D098E09FA
:1005A0009F09683E734081059105A8F321E0821AF6
:1005B0009108A108B10888EEC80E83E0D81EE11C9E
:1005C000F11C81149104A104B10429F7FF90EF906C
:1005D000DF90CF90BF90AF909F908F900895CF9273
:1005E000DF92EF92FF920F931F93CF93DF93CDB7DC
:1005F000DEB7C054D1400FB6F894DEBF0FBECDBFFA
:100600002FB7F8948091310290913202A091330279
:10061000B09134022FBF4091F3025091F4026091E7
:10062000F5027091F6028C019D01041B150B260B3F
:10063000370BB901A801403D57406105710590F4A1
:100640008091FB02C05CDE4F0FB6F894DEBF0FBE98
:10065000CDBFDF91CF911F910F91FF90EF90DF9071
:10066000CF9008958093F3029093F402A093F50243
:10067000B093F6021092EE021092ED021092EC028C
:100680001092EB021092EA0262E08091EF020E9467
:100690005C0261E070E080E090E00E94BD0261E0F9
:1006A0008091EF020E945C0260E08091EF020E9464
:1006B0002E028091F0028551823020F58BE291E18B
:1006C0000197F1F762E08091EF020E945C02809155
:1006D000FC0290E08230910538F0880F991F880F56
:1006E000991F05970197F1F7F89480E00E948C001C
:1006F0006F3F7F4F8F4F9F4F61F41092FB027894B2
:1007000080E0A0CF64E170E080E090E00E94BD0254
:10071000D9CF81E00E948C006F3F7F4F8F4F9F4F5A
:1007200061F38E010F5F1F4F6E018FEBC81A8EEFC2
:10073000D80A780180E00E948C00F7016083718301
:100740008283938381E00E948C00F7016483758328
:1007500086839783F8E0EF0EF11CEC14FD0451F74B
:10076000789430E020E0F801C080D180E280F3800E
:100770004481558166817781FFEFCF16DF06EF0652
:10078000FF0631F04F3F8FEF58076807780719F4DD
:100790001092FB02B5CFF90183E0F595E7958A95B4
:1007A000E1F7E651FD4F8081880FC416D506E606B5
:1007B000F70610F180832F5F3F4F085F1F4F2832ED
:1007C000310589F64091EE022091EA028091EB0218
:1007D000280F3327331F8091EC02280F311D8091A1
:1007E000ED02820F932F911D99274817190681F664
:1007F00081E08093FB0226CF8160DCCF08952091B9
:10080000B301260F3327331F21323105ECF4209139
:10081000FC01FC0190E080E0243069F082E0089562
:10082000A091B3012191AC014D565E4FA40FB52F9D
:10083000B11D2C930196861798F38091B301680F30
:100840006093B30180E0089581E008951092FC0167
:1008500081E08093FB011092D60161E082E10E9469
:100860002E0261E083E10E942E02E9EBF0E080813C
:100870008E7F808380818D7F808388E48093B80021
:1008800085E48093BC000895CF93DF9391E090932B
:1008900092018823B9F0C091B800D091BA0080913C
:1008A000BC008A7B8093BC0060E082E10E942E0243
:1008B00060E083E10E942E020E942604D093BA00D9
:1008C000C093B800DF91CF9108950895E091300270
:1008D00080912F02E81730F4F0E0EE58FE4F80814F
:1008E00090E008958FEF9FEF0895909130028091EE
:1008F0002F022FEF3FEF981748F4E92FF0E0EE5862
:10090000FE4F208130E09F5F90933002C90108952F
:1009100080912F0290913002891B990B0895CF92FC
:10092000DF92EF92FF920F931F93CF93DF937C019F
:10093000CB018A0120910202222389F0EB016B0195
:10094000C40ED51ECC15DD0569F06991D701ED9176
:10095000FC910190F081E02DC7010995F3CF642F40
:100960000E94FF03C801DF91CF911F910F91FF906B
:10097000EF90DF90CF900895CF93DF931F92CDB784
:10098000DEB76983209102022223F9F020912D0223
:10099000203258F021E030E0FC013383228390E0E4
:1009A00080E00F90DF91CF91089580912E02E82F83
:1009B000F0E0ED5FFD4F998190838F5F80932E0271
:1009C00080932D0281E090E0ECCF61E0CE010196B2
:1009D0000E94FF03F7CFCF92DF92EF92FF920F9327
:1009E0001F93CF93DF93FC01C48121E02093020287
:1009F000C093230210922E0210922D028385682B41
:100A000082ED92E00E94BC04D0912D02D13208F018
:100A100092C00E9498026B017C018091FC018111BF
:100A200065C082E08093FC0181E08093FB018FEF41
:100A30008093FA011092F901D093F801A3E0B2E09B
:100A4000E8EDF1E080E0D81385C01092D7018091E5
:100A5000D701CC0FC82BC093D7018091D60181302C
:100A600009F07CC01092D6010E9498026B017C01B3
:100A70008091D7018093BB008091FE019091FF018E
:100A8000A0910002B0910102892B8A2B8B2B99F047
:100A90000E9498020091FE011091FF012091000236
:100AA000309101026C197D098E099F0906171707FD
:100AB00028073907E0F18091BC0083FDD9CF85EC90
:100AC0008093BC000E9498026B017C018091FC0124
:100AD000823009F445C08091FA018F3F61F1809125
:100AE000FA01803241F18091FA0125C08091FE0126
:100AF0009091FF01A0910002B0910102892B8A2BF5
:100B00008B2B09F48ACF0E9498020091FE0110916C
:100B1000FF0120910002309101026C197D098E09BC
:100B20009F09061717072807390708F076CF809125
:100B3000FD010E94440410922E0210922D02109288
:100B40000202DF91CF911F910F91FF90EF90DF9004
:100B5000CF9008959D9191938F5F75CF85EEB0CF23
:100B60008091FE019091FF01A0910002B0910102DD
:100B7000892B8A2B8B2B09F4A9CF0E949802009114
:100B8000FE011091FF0120910002309101026C19C9
:100B90007D098E099F09061717072807390708F0EE
:100BA00095CFC5CF90E080E00895FC010190002032
:100BB000E9F73197AF01481B590BBC018EED92E06C
:100BC0000C94A601FC0180819181009711F00C9496
:100BD000C70D0895EF92FF920F931F93CF93DF936A
:100BE000EC017B01198218821B821A821D821C82F1
:100BF000FB0101900020E9F731978F01061B170BCD
:100C0000B8016F5F7F4F90E080E00E94500E009728
:100C1000B9F0998388831B830A832C813D81232B20
:100C200011F4FC0110821D830C83B7018881998126
:100C3000DF91CF911F910F91FF90EF900C94160FC1
:100C400088819981009711F00E94C70D198218823E
:100C50001D821C821B821A82DF91CF911F910F91FE
:100C6000FF90EF9008950F931F93CF938C01C62FA1
:100C70000E94EB046C2F6460C8010E94EB046C2F8F
:100C80006B7FC8010E94EB0483EC90E00197F1F7C1
:100C9000CF911F910F9108950F931F93CF93DF93DF
:100CA0008C01D62FC42F607F642B0E94330680E115
:100CB000D89FB00111246C2BC801DF91CF911F91F7
:100CC0000F910C94330640E061E08EED92E00E94BB
:100CD0004C068BE39FE10197F1F70895CF93DF93E3
:100CE000CDB7DEB728970FB6F894DEBF0FBECDBFE5
:100CF00098E0E6E0F1E0DE01119601900D929A9500
:100D0000E1F79091E602981708F48FEF90E0880FD2
:100D1000991F21E030E02C0F3D1F820F931FFC0133
:100D20006081606840E08EED92E028960FB6F894FE
:100D3000DEBF0FBECDBFDF91CF910C944C0641E0DA
:100D40000E944C0681E090E0089585ED8093BC0000
:100D50008091FE019091FF01A0910002B0910102EB
:100D60000796A11DB11D23E0B695A7959795879588
:100D70002A95D1F72091BC0024FD03C01092FC01FC
:100D800008954091FE015091FF0160910002709121
:100D90000102452B462B472B69F30097A105B105AE
:100DA00041F025E32A95F1F700000197A109B10967
:100DB000E1CF8091FD010C9444041F920F920FB675
:100DC0000F9211242F933F934F935F936F937F93D1
:100DD0008F939F93AF93BF93EF93FF9385E392E03D
:100DE0000E940101FF91EF91BF91AF919F918F916F
:100DF0007F916F915F914F913F912F910F900FBE17
:100E00000F901F9018951F920F920FB60F921124FA
:100E10002F938F939F93EF93FF93E0914502F0916F
:100E200046028081E0914B02F0914C0282FD1BC092
:100E3000908180914E028F5F8F7320914F028217B5
:100E400041F0E0914E02F0E0EB5CFD4F958F809316
:100E50004E02FF91EF919F918F912F910F900FBEB6
:100E60000F901F9018958081F4CF1F920F920FB6AC
:100E70000F9211242F933F938F939F93AF93BF9320
:100E80008091310290913202A0913302B0913402EC
:100E90003091240223E0230F2D3758F50196A11D30
:100EA000B11D209324028093310290933202A093CB
:100EB0003302B09334028091250290912602A091D2
:100EC0002702B09128020196A11DB11D8093250231
:100ED00090932602A0932702B0932802BF91AF916E
:100EE0009F918F913F912F910F900FBE0F901F9068
:100EF000189526E8230F0296A11DB11DD2CF1F928F
:100F00000F920FB60F9211242F933F934F935F933D
:100F10006F937F938F939F93AF93BF93EF93FF93C1
:100F20008091B900887F803609F44AC0F0F5883294
:100F300009F4A7C018F5803109F49BC0B8F48823E0
:100F400009F4F9C0883009F494C0FF91EF91BF9182
:100F5000AF919F918F917F916F915F914F913F9151
:100F60002F910F900FBE0F901F901895883109F4A4
:100F700088C0803251F78093FA0114C0803409F49C
:100F80009DC040F48033B9F38833F9F68093FA01B9
:100F900085ECB0C0803509F485C0883509F496C069
:100FA000883499F60E94A506D0CF883909F48CC000
:100FB00038F5883729F050F4883611F0803729F653
:100FC00083E08093FC011092D50157C0883809F462
:100FD0007BC0803919F0803809F0B7CF8091D501F6
:100FE000803208F071C0E091D50181E08E0F8093CE
:100FF000D5018091BB00F0E0EB54FE4F80833DC0F3
:10100000803B39F0E0F4803A09F479C0883A09F07D
:101010009CCF84E08093FC011092B4011092B30144
:10102000E0912B02F0912C0209958091B30181117E
:101030000FC081E08093B3011092930109C0803CFE
:1010400009F4A6CF883C09F4A3CF883B09F07DCFF3
:10105000E091B40181E08E0F8093B401F0E0ED5691
:10106000FE4F80818093BB009091B4018091B301C9
:1010700029C08091D7018093BB0085EC8093BC0090
:1010800064CF9091F9018091F801981758F5E0919B
:10109000F90181E08E0F8093F901F0E0E852FE4FF4
:1010A0008081E9CFE091F90181E08E0F8093F90111
:1010B0008091BB00F0E0E852FE4F80839091F901EF
:1010C0008091F8019817C8F285E8D8CFE091F9012E
:1010D00081E08E0F8093F9018091BB00F0E0E8522F
:1010E000FE4F80838091FB0181115CCF81E0809372
:1010F000D60184EA8093BC001092FC0126CF85ECD7
:101100008093BC001092FC018091D501803230F4B4
:10111000E091D501F0E0EB54FE4F10826091D501D3
:1011200070E0E0912902F0912A0285EB91E00995A7
:101130001092D5010ACF1092FA0134CFE5E3F2E024
:101140001382128288EE93E0A0E0B0E0848395835E
:10115000A683B78322E131E03183208325EC30E0A0
:101160003587248724EC30E03787268720EC30E071
:10117000318B208B21EC30E0338B228B22EC30E062
:10118000358B248B26EC30E0378B268B118E128E1C
:10119000138E148EE2EDF2E0138212828483958323
:1011A000A683B78384E291E091838083AAEEB2E0C4
:1011B0008DE015968C9315978BE016968C93169769
:1011C000EBEBF0E0E4911796EC931797E7EAF0E089
:1011D000E4911896EC93189740E85EE360E070E0C5
:1011E0001D964D935D936D937C935097EEEDF2E0D9
:1011F0001382128286E391E09183808387E2848365
:1012000080E1818782E0828713860895CF93DF9300
:10121000CDB7DEB768970FB6F894DEBF0FBECDBF6F
:10122000789484B5826084BD84B5816084BD85B5C1
:10123000826085BD85B5816085BD80916E008160CD
:1012400080936E0010928100809181008260809373
:101250008100809181008160809381008091800075
:101260008160809380008091B10084608093B100A0
:101270008091B00081608093B00080917A0084609A
:1012800080937A0080917A00826080937A008091C6
:101290007A00816080937A0080917A0080688093E0
:1012A0007A001092C1001092300210922F02109218
:1012B0002E0210922D020E94260484EA91E090935F
:1012C0002C0280932B0285EA91E090932A0280936E
:1012D00029021092E3028091E802823018F098E02F
:1012E0009093E3028093E60262E370E080E090E096
:1012F0000E94BD026091E9028EED92E00E94EB0433
:1013000068EE73E080E090E00E94BD0260E38EED45
:1013100092E00E9433060BE416E4C8010197F1F74E
:1013200060E38EED92E00E943306C8010197F1F769
:1013300060E38EED92E00E94330683E592E0019730
:10134000F1F760E28EED92E00E9433066091E302D5
:10135000606240E08EED92E00E944C0684E0809353
:10136000E40240E06CE08EED92E00E944C060E94A8
:10137000630682E08093E50240E066E08EED92E055
:101380000E944C0640E062E08EED92E00E944C0626
:101390008BE39FE10197F1F788E08093E90260E039
:1013A0008EED92E00E94EB0462E08091EF020E94D9
:1013B0005C022FB7F8948091310290913202A09193
:1013C0003302B09134022FBF805D9740A109B1096B
:1013D0008093F3029093F402A093F502B093F60287
:1013E00087E38093FC0260E08EE00E945C0260E094
:1013F0008FE00E945C0260E080E10E945C0261E09C
:101400008CE00E945C0261E08BE00E945C0260E084
:101410008CE00E942E0260E08BE00E942E0280E0B1
:101420000E946E0685E491E00E94D50581E00E944D
:101430006E0684E591E00E94D50560ED77E080E0DE
:1014400090E00E94BD020E94630620E0A22E20E0F0
:10145000B22E0E94EF02882341F08091F0028C307E
:1014600009F401C148F48B3001F1412C512C80EC7E
:10147000682E8FE7782E43C085518230B0F71091E7
:10148000EC02612F70E0762F662766277F778091C8
:10149000ED02682B90E080E00E945D0B2DEC3CECAF
:1014A0004CEC5DE30E94BE0BFAC06091EC0270E070
:1014B00090E080E00E945D0B6B017C011091ED02D9
:1014C00017FF0AC0AC019B0160E070E080E89FEB71
:1014D0000E94B30C6B017C011F70612F70E090E0E3
:1014E00080E00E945F0B2DEC3CEC4CEC5DE30E9435
:1014F000BE0BA70196010E94B40C2B013C010E9477
:10150000EF028EE00E9405026C018FE00E9405024E
:101510007C0180E10E9405028C0162E471E0C1144B
:10152000D10411F06EE371E0CE0143960E94EA050A
:1015300062E471E0E114F10411F06EE371E0CE01B8
:101540000D960E94EA056EE371E00115110511F098
:1015500062E471E0CE0107960E94EA0520E030E0E7
:1015600048E452E4C301B2010E94200D62E471E03C
:10157000181614F46EE371E0CE0101960E94EA059C
:101580000E94630680E00E946E068EE591E00E9454
:10159000D505CE0143960E94D30183E691E00E94D7
:1015A000D505CE010D960E94D30181E00E946E0602
:1015B00089E691E00E94D505CE0107960E94D301ED
:1015C0008EE691E00E94D505CE0101960E94D301DE
:1015D00068EE73E080E090E00E94BD02CD2879F4CF
:1015E000EF2869F4012B59F020E030E048E452E4A0
:1015F000C301B2010E94200D18160CF059C061E021
:101600008CE00E942E0261E08BE00E942E0264EFCB
:1016100071E080E090E00E94BD0260E08BE00E94FB
:101620002E0268EE73E080E090E00E94BD02CE01E1
:1016300001960E94E205CE0107960E94E205CE01C6
:101640000D960E94E205CE0143960E94E205A11488
:10165000B10409F4FECE0E949001882309F4F9CE6A
:101660000E940000F6CE1091EC02612F70E090E035
:1016700080E00E945D0B6B017C016091ED026F7058
:1016800070E090E080E00E945F0B2DEC3CEC4CECB5
:101690005DE30E94BE0BA70196010E94B40C2B01D2
:1016A0003C0117FF2CCF77FA709477F8709427CF0E
:1016B00060E08CE00E942E02B0CFE89409C097FB56
:1016C0003EF490958095709561957F4F8F4F9F4F19
:1016D0009923A9F0F92F96E9BB279395F69587955D
:1016E00077956795B795F111F8CFFAF4BB0F11F420
:1016F00060FF1BC06F5F7F4F8F4F9F4F16C08823C7
:1017000011F096E911C0772321F09EE8872F762FFC
:1017100005C0662371F096E8862F70E060E02AF03D
:101720009A95660F771F881FDAF7880F9695879529
:1017300097F90895990F0008550FAA0BE0E8FEEFFE
:1017400016161706E807F907C0F012161306E40785
:10175000F50798F0621B730B840B950B39F40A267E
:1017600061F0232B242B252B21F408950A2609F45C
:10177000A140A6958FEF811D811D08950E94D10B78
:101780000C94420C0E94340C38F00E943B0C20F068
:10179000952311F00C942B0C0C94310C11240C9407
:1017A000760C0E94530C70F3959FC1F3950F50E097
:1017B000551F629FF001729FBB27F00DB11D639F03
:1017C000AA27F00DB11DAA1F649F6627B00DA11DA9
:1017D000661F829F2227B00DA11D621F739FB00D4F
:1017E000A11D621F839FA00D611D221F749F3327BF
:1017F000A00D611D231F849F600D211D822F762F58
:101800006A2F11249F5750409AF0F1F088234AF034
:10181000EE0FFF1FBB1F661F771F881F91505040A0
:10182000A9F79E3F510580F00C942B0C0C94760C7C
:101830005F3FE4F3983ED4F3869577956795B79527
:10184000F795E7959F5FC1F7FE2B880F911D969541
:10185000879597F9089597F99F6780E870E060E0B1
:1018600008959FEF80EC089500240A941616170639
:1018700018060906089500240A9412161306140681
:1018800005060895092E0394000C11F4882352F0E4
:10189000BB0F40F4BF2B11F460FF04C06F5F7F4F9C
:1018A0008F4F9F4F089557FD9058440F551F59F083
:1018B0005F3F71F04795880F97FB991F61F09F3F3D
:1018C00079F087950895121613061406551FF2CF66
:1018D0004695F1DF08C0161617061806991FF1CFB6
:1018E00086957105610508940895E894BB276627DD
:1018F0007727CB0197F908952F923F924F925F92ED
:101900006F927F928F929F92AF92BF92CF92DF920F
:10191000EF92FF920F931F93CF93DF93CDB7DEB774
:10192000CA1BDB0B0FB6F894DEBF0FBECDBF099408
:101930002A88398848885F846E847D848C849B845F
:10194000AA84B984C884DF80EE80FD800C811B816D
:10195000AA81B981CE0FD11D0FB6F894DEBF0FBE9C
:10196000CDBFED0108955058BB27AA270E94CB0C8C
:101970000C94420C0E94340C38F00E943B0C20F076
:1019800039F49F3F19F426F40C94310C0EF4E095D1
:10199000E7FB0C942B0CE92F0E94530C58F3BA1759
:1019A000620773078407950720F079F4A6F50C9475
:1019B000750C0EF4E0950B2EBA2FA02D0B01B9017A
:1019C00090010C01CA01A0011124FF27591B99F0B5
:1019D000593F50F4503E68F11A16F040A22F232FC1
:1019E000342F4427585FF3CF469537952795A79511
:1019F000F0405395C9F77EF41F16BA0B620B730BB8
:101A0000840BBAF09150A1F0FF0FBB1F661F771F28
:101A1000881FC2F70EC0BA0F621F731F841F48F4DD
:101A2000879577956795B795F7959E3F08F0B0CF66
:101A30009395880F08F09927EE0F9795879508954D
:101A40000E949A0B08F48FEF0895EE0FFF1F059088
:101A5000F491E02D09940F931F93CF93DF9382307D
:101A6000910510F482E090E0E091FF02F091000314
:101A700030E020E0B0E0A0E0309799F42115310586
:101A800009F44AC0281B390B24303105D8F58A8166
:101A90009B816115710589F1FB0193838283FE01AE
:101AA00011C0408151810281138148175907E0F02C
:101AB0004817590799F4109761F012960C931297F2
:101AC00013961C933296CF01DF91CF911F910F9106
:101AD00008950093FF0210930003F4CF2115310500
:101AE00051F04217530738F0A901DB019A01BD01FB
:101AF000DF01F801C1CFEF01F9CF9093000380938C
:101B0000FF02CDCFFE01E20FF31F8193919322508C
:101B1000310939832883D7CF2091FD023091FE020D
:101B2000232B41F420910201309103013093FE02F6
:101B30002093FD0220910001309101012115310512
:101B400041F42DB73EB74091040150910501241B8B
:101B5000350BE091FD02F091FE02E217F307A0F4CD
:101B60002E1B3F0B2817390778F0AC014E5F5F4FF3
:101B70002417350748F04E0F5F1F5093FE02409325
:101B8000FD02819391939FCFF0E0E0E09CCFCF9353
:101B9000DF930097E9F0FC01329713821282A09143
:101BA000FF02B0910003ED0130E020E01097A1F4B6
:101BB00020813181820F931F2091FD023091FE021E
:101BC0002817390709F061C0F093FE02E093FD0287
:101BD000DF91CF910895EA01CE17DF07E8F54A813A
:101BE0005B819E0141155105B1F7E901FB83EA8351
:101BF00049915991C40FD51FEC17FD0761F48081FD
:101C000091810296840F951FE901998388838281CF
:101C100093819B838A83F0E0E0E012968D919C9102
:101C200013970097B9F52D913C911197CD0102962C
:101C3000820F931F2091FD023091FE022817390771
:101C400039F6309751F5109200031092FF02B093CD
:101C5000FE02A093FD02BCCFD383C2834081518199
:101C6000840F951FC817D90761F44E5F5F4F8881B5
:101C70009981480F591F518340838A819B819383A7
:101C800082832115310509F0B0CFF0930003E09372
:101C9000FF029ECFFD01DC01C0CF13821282D7CF9D
:101CA000B0E0A0E0E6E5FEE00C947E0C8C0100972D
:101CB00051F4CB010E942B0D8C01C801CDB7DEB7CA
:101CC000E0E10C949A0CFC01E60FF71F9C012250F6
:101CD0003109E217F30708F49DC0D901CD91DC91D9
:101CE0001197C617D70798F0C530D10530F3CE014C
:101CF00004978617970708F3C61BD70B2297C19343
:101D0000D1936D937C93CF010E94C70DD6CF5B0119
:101D1000AC1ABD0A4C018C0E9D1EA091FF02B09121
:101D20000003512C412CF12CE12C109731F58091BE
:101D3000FD029091FE028815990509F05CC04616D7
:101D4000570608F058C0809100019091010100975A
:101D500041F48DB79EB74091040150910501841B59
:101D6000950BE817F90708F055C0F093FE02E093D1
:101D7000FD02F90171836083A0CF8D919C91119731
:101D800012966C90129713967C901397A815B9052C
:101D900059F56C0142E0C40ED11CCA14DB0420F1D9
:101DA000AC014A195B09DA011296159780F062823C
:101DB000738251834083D9016D937C93E114F104C4
:101DC00071F0D7011396FC93EE93129776CF22967B
:101DD0008C0F9D1FF90191838083F301EFCFF09366
:101DE0000003E093FF0269CF4816590608F42C015E
:101DF0007D01D3019ACFCB010E942B0D7C0100976E
:101E000049F0AE01B8010E940D0FC8010E94C70D34
:101E1000870153CF10E000E050CFFB01DC0102C08E
:101E200001900D9241505040D8F70895FB01DC011C
:101E300001900D920020E1F70895F894FFCF000083
:101E40000103800000004000140054000000000066
:101E50002301A601C4007001F500D300E7000000D3
:101E60000000BC048F04D205650488047504660470
:101E7000000000009F06A601D205FE034241440077
:101E80004F4B004155544F4D415449432046554D09
:101E90004500455854524143544F5200434F323A43
:101EA0000020564F433A005661633A0020543A00EE
:107E0000112484B714BE81FFF0D085E080938100F7
:107E100082E08093C00088E18093C10086E0809377
:107E2000C20080E18093C4008EE0C9D0259A86E02C
:107E300020E33CEF91E0309385002093840096BBD3
:107E4000B09BFECF1D9AA8958150A9F7CC24DD24C4
:107E500088248394B5E0AB2EA1E19A2EF3E0BF2EE7
:107E6000A2D0813461F49FD0082FAFD0023811F036
:107E7000013811F484E001C083E08DD089C08234E0
:107E800011F484E103C0853419F485E0A6D080C0E4
:107E9000853579F488D0E82EFF2485D0082F10E0AE
:107EA000102F00270E291F29000F111F8ED06801E7
:107EB0006FC0863521F484E090D080E0DECF843638
:107EC00009F040C070D06FD0082F6DD080E0C81688
:107ED00080E7D80618F4F601B7BEE895C0E0D1E017
:107EE00062D089930C17E1F7F0E0CF16F0E7DF06D8
:107EF00018F0F601B7BEE89568D007B600FCFDCFD4
:107F0000A601A0E0B1E02C9130E011968C91119780
:107F100090E0982F8827822B932B1296FA010C0160
:107F200087BEE89511244E5F5F4FF1E0A038BF0790
:107F300051F7F601A7BEE89507B600FCFDCF97BE46
:107F4000E89526C08437B1F42ED02DD0F82E2BD052
:107F50003CD0F601EF2C8F010F5F1F4F84911BD097
:107F6000EA94F801C1F70894C11CD11CFA94CF0C13
:107F7000D11C0EC0853739F428D08EE10CD085E9AC
:107F80000AD08FE07ACF813511F488E018D01DD067
:107F900080E101D065CF982F8091C00085FFFCCF94
:107FA0009093C60008958091C00087FFFCCF809118
:107FB000C00084FD01C0A8958091C6000895E0E648
:107FC000F0E098E1908380830895EDDF803219F02E
:107FD00088E0F5DFFFCF84E1DECF1F93182FE3DFCA
:107FE0001150E9F7F2DF1F91089580E0E8DFEE27F6
:047FF000FF270994CA
:027FFE00040479
:00000001FF
